{
  "contractName": "EduCoin",
  "abi": [
    {
      "constant": true,
      "inputs": [],
      "name": "name",
      "outputs": [
        {
          "name": "",
          "type": "string"
        }
      ],
      "payable": false,
      "stateMutability": "view",
      "type": "function"
    },
    {
      "constant": false,
      "inputs": [
        {
          "name": "spender",
          "type": "address"
        },
        {
          "name": "value",
          "type": "uint256"
        }
      ],
      "name": "approve",
      "outputs": [
        {
          "name": "",
          "type": "bool"
        }
      ],
      "payable": false,
      "stateMutability": "nonpayable",
      "type": "function"
    },
    {
      "constant": true,
      "inputs": [],
      "name": "totalSupply",
      "outputs": [
        {
          "name": "",
          "type": "uint256"
        }
      ],
      "payable": false,
      "stateMutability": "view",
      "type": "function"
    },
    {
      "constant": false,
      "inputs": [
        {
          "name": "from",
          "type": "address"
        },
        {
          "name": "to",
          "type": "address"
        },
        {
          "name": "value",
          "type": "uint256"
        }
      ],
      "name": "transferFrom",
      "outputs": [
        {
          "name": "",
          "type": "bool"
        }
      ],
      "payable": false,
      "stateMutability": "nonpayable",
      "type": "function"
    },
    {
      "constant": true,
      "inputs": [],
      "name": "INITIAL_SUPPLY",
      "outputs": [
        {
          "name": "",
          "type": "uint256"
        }
      ],
      "payable": false,
      "stateMutability": "view",
      "type": "function"
    },
    {
      "constant": true,
      "inputs": [],
      "name": "decimals",
      "outputs": [
        {
          "name": "",
          "type": "uint8"
        }
      ],
      "payable": false,
      "stateMutability": "view",
      "type": "function"
    },
    {
      "constant": false,
      "inputs": [
        {
          "name": "spender",
          "type": "address"
        },
        {
          "name": "addedValue",
          "type": "uint256"
        }
      ],
      "name": "increaseAllowance",
      "outputs": [
        {
          "name": "",
          "type": "bool"
        }
      ],
      "payable": false,
      "stateMutability": "nonpayable",
      "type": "function"
    },
    {
      "constant": true,
      "inputs": [],
      "name": "exchangeRate",
      "outputs": [
        {
          "name": "",
          "type": "uint256"
        }
      ],
      "payable": false,
      "stateMutability": "view",
      "type": "function"
    },
    {
      "constant": true,
      "inputs": [
        {
          "name": "owner",
          "type": "address"
        }
      ],
      "name": "balanceOf",
      "outputs": [
        {
          "name": "",
          "type": "uint256"
        }
      ],
      "payable": false,
      "stateMutability": "view",
      "type": "function"
    },
    {
      "constant": false,
      "inputs": [],
      "name": "renounceOwnership",
      "outputs": [],
      "payable": false,
      "stateMutability": "nonpayable",
      "type": "function"
    },
    {
      "constant": true,
      "inputs": [],
      "name": "owner",
      "outputs": [
        {
          "name": "",
          "type": "address"
        }
      ],
      "payable": false,
      "stateMutability": "view",
      "type": "function"
    },
    {
      "constant": true,
      "inputs": [],
      "name": "isOwner",
      "outputs": [
        {
          "name": "",
          "type": "bool"
        }
      ],
      "payable": false,
      "stateMutability": "view",
      "type": "function"
    },
    {
      "constant": true,
      "inputs": [],
      "name": "symbol",
      "outputs": [
        {
          "name": "",
          "type": "string"
        }
      ],
      "payable": false,
      "stateMutability": "view",
      "type": "function"
    },
    {
      "constant": false,
      "inputs": [
        {
          "name": "spender",
          "type": "address"
        },
        {
          "name": "subtractedValue",
          "type": "uint256"
        }
      ],
      "name": "decreaseAllowance",
      "outputs": [
        {
          "name": "",
          "type": "bool"
        }
      ],
      "payable": false,
      "stateMutability": "nonpayable",
      "type": "function"
    },
    {
      "constant": false,
      "inputs": [
        {
          "name": "to",
          "type": "address"
        },
        {
          "name": "value",
          "type": "uint256"
        }
      ],
      "name": "transfer",
      "outputs": [
        {
          "name": "",
          "type": "bool"
        }
      ],
      "payable": false,
      "stateMutability": "nonpayable",
      "type": "function"
    },
    {
      "constant": true,
      "inputs": [
        {
          "name": "owner",
          "type": "address"
        },
        {
          "name": "spender",
          "type": "address"
        }
      ],
      "name": "allowance",
      "outputs": [
        {
          "name": "",
          "type": "uint256"
        }
      ],
      "payable": false,
      "stateMutability": "view",
      "type": "function"
    },
    {
      "constant": false,
      "inputs": [
        {
          "name": "newOwner",
          "type": "address"
        }
      ],
      "name": "transferOwnership",
      "outputs": [],
      "payable": false,
      "stateMutability": "nonpayable",
      "type": "function"
    },
    {
      "inputs": [],
      "payable": false,
      "stateMutability": "nonpayable",
      "type": "constructor"
    },
    {
      "anonymous": false,
      "inputs": [
        {
          "indexed": false,
          "name": "_schoolAddress",
          "type": "address"
        },
        {
          "indexed": false,
          "name": "_schoolName",
          "type": "string"
        },
        {
          "indexed": false,
          "name": "_type",
          "type": "uint8"
        },
        {
          "indexed": false,
          "name": "_registered",
          "type": "bool"
        }
      ],
      "name": "NewSchoolAdded",
      "type": "event"
    },
    {
      "anonymous": false,
      "inputs": [
        {
          "indexed": false,
          "name": "_schoolAdress",
          "type": "address"
        },
        {
          "indexed": false,
          "name": "_registered",
          "type": "bool"
        }
      ],
      "name": "SchoolRegistrationUpdated",
      "type": "event"
    },
    {
      "anonymous": false,
      "inputs": [
        {
          "indexed": false,
          "name": "_from",
          "type": "address"
        },
        {
          "indexed": false,
          "name": "_school",
          "type": "address"
        },
        {
          "indexed": false,
          "name": "_amount",
          "type": "uint256"
        },
        {
          "indexed": false,
          "name": "_reference",
          "type": "string"
        }
      ],
      "name": "FeesPayed",
      "type": "event"
    },
    {
      "anonymous": false,
      "inputs": [
        {
          "indexed": true,
          "name": "previousOwner",
          "type": "address"
        },
        {
          "indexed": true,
          "name": "newOwner",
          "type": "address"
        }
      ],
      "name": "OwnershipTransferred",
      "type": "event"
    },
    {
      "anonymous": false,
      "inputs": [
        {
          "indexed": true,
          "name": "from",
          "type": "address"
        },
        {
          "indexed": true,
          "name": "to",
          "type": "address"
        },
        {
          "indexed": false,
          "name": "value",
          "type": "uint256"
        }
      ],
      "name": "Transfer",
      "type": "event"
    },
    {
      "anonymous": false,
      "inputs": [
        {
          "indexed": true,
          "name": "owner",
          "type": "address"
        },
        {
          "indexed": true,
          "name": "spender",
          "type": "address"
        },
        {
          "indexed": false,
          "name": "value",
          "type": "uint256"
        }
      ],
      "name": "Approval",
      "type": "event"
    },
    {
      "constant": true,
      "inputs": [],
      "name": "getContractBalance",
      "outputs": [
        {
          "name": "",
          "type": "uint256"
        }
      ],
      "payable": false,
      "stateMutability": "view",
      "type": "function"
    },
    {
      "constant": false,
      "inputs": [
        {
          "name": "_schoolAddress",
          "type": "address"
        },
        {
          "name": "_schoolName",
          "type": "string"
        },
        {
          "name": "_type",
          "type": "uint8"
        },
        {
          "name": "_registered",
          "type": "bool"
        }
      ],
      "name": "addSchool",
      "outputs": [],
      "payable": false,
      "stateMutability": "nonpayable",
      "type": "function"
    },
    {
      "constant": false,
      "inputs": [
        {
          "name": "_schoolAddress",
          "type": "address"
        },
        {
          "name": "_registered",
          "type": "bool"
        }
      ],
      "name": "registerSchool",
      "outputs": [],
      "payable": false,
      "stateMutability": "nonpayable",
      "type": "function"
    },
    {
      "constant": false,
      "inputs": [
        {
          "name": "_schoolAdd",
          "type": "address"
        },
        {
          "name": "_amount",
          "type": "uint256"
        },
        {
          "name": "_reference",
          "type": "string"
        }
      ],
      "name": "payFees",
      "outputs": [],
      "payable": false,
      "stateMutability": "nonpayable",
      "type": "function"
    },
    {
      "constant": false,
      "inputs": [],
      "name": "buyToken",
      "outputs": [],
      "payable": true,
      "stateMutability": "payable",
      "type": "function"
    },
    {
      "constant": true,
      "inputs": [
        {
          "name": "_schoolAdd",
          "type": "address"
        }
      ],
      "name": "getSchool",
      "outputs": [
        {
          "name": "_schoolName",
          "type": "string"
        },
        {
          "name": "_registered",
          "type": "bool"
        }
      ],
      "payable": false,
      "stateMutability": "view",
      "type": "function"
    }
  ],
  "bytecode": "0x60806040526040805190810160405280600781526020017f454455434f494e00000000000000000000000000000000000000000000000000815250600490805190602001906200005192919062000340565b506040805190810160405280600381526020017f4544550000000000000000000000000000000000000000000000000000000000815250600590805190602001906200009f92919062000340565b506012600660006101000a81548160ff021916908360ff1602179055506a295be96e640669720000006007556002600855348015620000dd57600080fd5b5033600360006101000a81548173ffffffffffffffffffffffffffffffffffffffff021916908373ffffffffffffffffffffffffffffffffffffffff160217905550600360009054906101000a900473ffffffffffffffffffffffffffffffffffffffff1673ffffffffffffffffffffffffffffffffffffffff16600073ffffffffffffffffffffffffffffffffffffffff167f8be0079c531659141344cd1fd0a4f28419497f9722a3daafe3b4186f6b6457e060405160405180910390a3620001b933600754620001bf640100000000026401000000009004565b620003ef565b60008273ffffffffffffffffffffffffffffffffffffffff1614151515620001e657600080fd5b6200020b816002546200031e6401000000000262001c6b179091906401000000009004565b60028190555062000272816000808573ffffffffffffffffffffffffffffffffffffffff1673ffffffffffffffffffffffffffffffffffffffff168152602001908152602001600020546200031e6401000000000262001c6b179091906401000000009004565b6000808473ffffffffffffffffffffffffffffffffffffffff1673ffffffffffffffffffffffffffffffffffffffff168152602001908152602001600020819055508173ffffffffffffffffffffffffffffffffffffffff16600073ffffffffffffffffffffffffffffffffffffffff167fddf252ad1be2c89b69c2b068fc378daa952ba7f163c4a11628f55a4df523b3ef836040518082815260200191505060405180910390a35050565b60008082840190508381101515156200033657600080fd5b8091505092915050565b828054600181600116156101000203166002900490600052602060002090601f016020900481019282601f106200038357805160ff1916838001178555620003b4565b82800160010185558215620003b4579182015b82811115620003b357825182559160200191906001019062000396565b5b509050620003c39190620003c7565b5090565b620003ec91905b80821115620003e8576000816000905550600101620003ce565b5090565b90565b611e5980620003ff6000396000f300608060405260043610610133576000357c0100000000000000000000000000000000000000000000000000000000900463ffffffff16806306fdde0314610138578063095ea7b3146101c857806318160ddd1461022d57806323b872dd146102585780632ff2e9dc146102dd578063313ce5671461030857806339194eb41461033957806339509351146104005780633ba0b9a9146104655780633c22fcff146104905780634402f94a146104df5780634945b01e146105725780636f9fb98a1461061457806370a082311461063f578063715018a6146106965780638da5cb5b146106ad5780638f32d59b1461070457806395d89b4114610733578063a457c2d7146107c3578063a482171914610828578063a9059cbb14610832578063dd62ed3e14610897578063f2fde38b1461090e575b600080fd5b34801561014457600080fd5b5061014d610951565b6040518080602001828103825283818151815260200191508051906020019080838360005b8381101561018d578082015181840152602081019050610172565b50505050905090810190601f1680156101ba5780820380516001836020036101000a031916815260200191505b509250505060405180910390f35b3480156101d457600080fd5b50610213600480360381019080803573ffffffffffffffffffffffffffffffffffffffff169060200190929190803590602001909291905050506109ef565b604051808215151515815260200191505060405180910390f35b34801561023957600080fd5b50610242610b1c565b6040518082815260200191505060405180910390f35b34801561026457600080fd5b506102c3600480360381019080803573ffffffffffffffffffffffffffffffffffffffff169060200190929190803573ffffffffffffffffffffffffffffffffffffffff16906020019092919080359060200190929190505050610b26565b604051808215151515815260200191505060405180910390f35b3480156102e957600080fd5b506102f2610cd8565b6040518082815260200191505060405180910390f35b34801561031457600080fd5b5061031d610cde565b604051808260ff1660ff16815260200191505060405180910390f35b34801561034557600080fd5b5061037a600480360381019080803573ffffffffffffffffffffffffffffffffffffffff169060200190929190505050610cf1565b604051808060200183151515158152602001828103825284818151815260200191508051906020019080838360005b838110156103c45780820151818401526020810190506103a9565b50505050905090810190601f1680156103f15780820380516001836020036101000a031916815260200191505b50935050505060405180910390f35b34801561040c57600080fd5b5061044b600480360381019080803573ffffffffffffffffffffffffffffffffffffffff16906020019092919080359060200190929190505050610df3565b604051808215151515815260200191505060405180910390f35b34801561047157600080fd5b5061047a61102a565b6040518082815260200191505060405180910390f35b34801561049c57600080fd5b506104dd600480360381019080803573ffffffffffffffffffffffffffffffffffffffff169060200190929190803515159060200190929190505050611030565b005b3480156104eb57600080fd5b50610570600480360381019080803573ffffffffffffffffffffffffffffffffffffffff16906020019092919080359060200190929190803590602001908201803590602001908080601f0160208091040260200160405190810160405280939291908181526020018383808284378201915050505050509192919290505050611110565b005b34801561057e57600080fd5b50610612600480360381019080803573ffffffffffffffffffffffffffffffffffffffff169060200190929190803590602001908201803590602001908080601f0160208091040260200160405190810160405280939291908181526020018383808284378201915050505050509192919290803560ff1690602001909291908035151590602001909291905050506112da565b005b34801561062057600080fd5b506106296114b6565b6040518082815260200191505060405180910390f35b34801561064b57600080fd5b50610680600480360381019080803573ffffffffffffffffffffffffffffffffffffffff1690602001909291905050506114d5565b6040518082815260200191505060405180910390f35b3480156106a257600080fd5b506106ab61151d565b005b3480156106b957600080fd5b506106c26115f1565b604051808273ffffffffffffffffffffffffffffffffffffffff1673ffffffffffffffffffffffffffffffffffffffff16815260200191505060405180910390f35b34801561071057600080fd5b5061071961161b565b604051808215151515815260200191505060405180910390f35b34801561073f57600080fd5b50610748611673565b6040518080602001828103825283818151815260200191508051906020019080838360005b8381101561078857808201518184015260208101905061076d565b50505050905090810190601f1680156107b55780820380516001836020036101000a031916815260200191505b509250505060405180910390f35b3480156107cf57600080fd5b5061080e600480360381019080803573ffffffffffffffffffffffffffffffffffffffff16906020019092919080359060200190929190505050611711565b604051808215151515815260200191505060405180910390f35b610830611948565b005b34801561083e57600080fd5b5061087d600480360381019080803573ffffffffffffffffffffffffffffffffffffffff16906020019092919080359060200190929190505050611974565b604051808215151515815260200191505060405180910390f35b3480156108a357600080fd5b506108f8600480360381019080803573ffffffffffffffffffffffffffffffffffffffff169060200190929190803573ffffffffffffffffffffffffffffffffffffffff16906020019092919050505061198b565b6040518082815260200191505060405180910390f35b34801561091a57600080fd5b5061094f600480360381019080803573ffffffffffffffffffffffffffffffffffffffff169060200190929190505050611a12565b005b60048054600181600116156101000203166002900480601f0160208091040260200160405190810160405280929190818152602001828054600181600116156101000203166002900480156109e75780601f106109bc576101008083540402835291602001916109e7565b820191906000526020600020905b8154815290600101906020018083116109ca57829003601f168201915b505050505081565b60008073ffffffffffffffffffffffffffffffffffffffff168373ffffffffffffffffffffffffffffffffffffffff1614151515610a2c57600080fd5b81600160003373ffffffffffffffffffffffffffffffffffffffff1673ffffffffffffffffffffffffffffffffffffffff16815260200190815260200160002060008573ffffffffffffffffffffffffffffffffffffffff1673ffffffffffffffffffffffffffffffffffffffff168152602001908152602001600020819055508273ffffffffffffffffffffffffffffffffffffffff163373ffffffffffffffffffffffffffffffffffffffff167f8c5be1e5ebec7d5bd14f71427d1e84f3dd0314c0f7b2291e5b200ac8c7c3b925846040518082815260200191505060405180910390a36001905092915050565b6000600254905090565b6000600160008573ffffffffffffffffffffffffffffffffffffffff1673ffffffffffffffffffffffffffffffffffffffff16815260200190815260200160002060003373ffffffffffffffffffffffffffffffffffffffff1673ffffffffffffffffffffffffffffffffffffffff168152602001908152602001600020548211151515610bb357600080fd5b610c4282600160008773ffffffffffffffffffffffffffffffffffffffff1673ffffffffffffffffffffffffffffffffffffffff16815260200190815260200160002060003373ffffffffffffffffffffffffffffffffffffffff1673ffffffffffffffffffffffffffffffffffffffff16815260200190815260200160002054611a3190919063ffffffff16565b600160008673ffffffffffffffffffffffffffffffffffffffff1673ffffffffffffffffffffffffffffffffffffffff16815260200190815260200160002060003373ffffffffffffffffffffffffffffffffffffffff1673ffffffffffffffffffffffffffffffffffffffff16815260200190815260200160002081905550610ccd848484611a52565b600190509392505050565b60075481565b600660009054906101000a900460ff1681565b6060600080600960008573ffffffffffffffffffffffffffffffffffffffff1673ffffffffffffffffffffffffffffffffffffffff1681526020019081526020016000209050806000018160010160019054906101000a900460ff16818054600181600116156101000203166002900480601f016020809104026020016040519081016040528092919081815260200182805460018160011615610100020316600290048015610de25780601f10610db757610100808354040283529160200191610de2565b820191906000526020600020905b815481529060010190602001808311610dc557829003601f168201915b505050505091509250925050915091565b60008073ffffffffffffffffffffffffffffffffffffffff168373ffffffffffffffffffffffffffffffffffffffff1614151515610e3057600080fd5b610ebf82600160003373ffffffffffffffffffffffffffffffffffffffff1673ffffffffffffffffffffffffffffffffffffffff16815260200190815260200160002060008673ffffffffffffffffffffffffffffffffffffffff1673ffffffffffffffffffffffffffffffffffffffff16815260200190815260200160002054611c6b90919063ffffffff16565b600160003373ffffffffffffffffffffffffffffffffffffffff1673ffffffffffffffffffffffffffffffffffffffff16815260200190815260200160002060008573ffffffffffffffffffffffffffffffffffffffff1673ffffffffffffffffffffffffffffffffffffffff168152602001908152602001600020819055508273ffffffffffffffffffffffffffffffffffffffff163373ffffffffffffffffffffffffffffffffffffffff167f8c5be1e5ebec7d5bd14f71427d1e84f3dd0314c0f7b2291e5b200ac8c7c3b925600160003373ffffffffffffffffffffffffffffffffffffffff1673ffffffffffffffffffffffffffffffffffffffff16815260200190815260200160002060008773ffffffffffffffffffffffffffffffffffffffff1673ffffffffffffffffffffffffffffffffffffffff168152602001908152602001600020546040518082815260200191505060405180910390a36001905092915050565b60085481565b61103861161b565b151561104357600080fd5b80600960008473ffffffffffffffffffffffffffffffffffffffff1673ffffffffffffffffffffffffffffffffffffffff16815260200190815260200160002060010160016101000a81548160ff0219169083151502179055507fc784cdc8a71401cccb5196bb197676f4025b5f68e61b777dc46858f38feeda358282604051808373ffffffffffffffffffffffffffffffffffffffff1673ffffffffffffffffffffffffffffffffffffffff168152602001821515151581526020019250505060405180910390a15050565b60011515600960008573ffffffffffffffffffffffffffffffffffffffff1673ffffffffffffffffffffffffffffffffffffffff16815260200190815260200160002060010160019054906101000a900460ff16151514151561117257600080fd5b60003373ffffffffffffffffffffffffffffffffffffffff161415151561119857600080fd5b60008373ffffffffffffffffffffffffffffffffffffffff16141515156111be57600080fd5b6111c9338484611a52565b7fee4ee3c728302706c59cd305aacb2161df81fc1b44b33f6b2cc519e229454fd233848484604051808573ffffffffffffffffffffffffffffffffffffffff1673ffffffffffffffffffffffffffffffffffffffff1681526020018473ffffffffffffffffffffffffffffffffffffffff1673ffffffffffffffffffffffffffffffffffffffff16815260200183815260200180602001828103825283818151815260200191508051906020019080838360005b8381101561129857808201518184015260208101905061127d565b50505050905090810190601f1680156112c55780820380516001836020036101000a031916815260200191505b509550505050505060405180910390a1505050565b6112e261161b565b15156112ed57600080fd5b60606040519081016040528084815260200183600481111561130b57fe5b8152602001821515815250600960008673ffffffffffffffffffffffffffffffffffffffff1673ffffffffffffffffffffffffffffffffffffffff1681526020019081526020016000206000820151816000019080519060200190611371929190611d88565b5060208201518160010160006101000a81548160ff0219169083600481111561139657fe5b021790555060408201518160010160016101000a81548160ff0219169083151502179055509050507f690a5eb9dfb21083571373dde683ca58832dea8cc7cfb16eac482fc9c081136c84848484604051808573ffffffffffffffffffffffffffffffffffffffff1673ffffffffffffffffffffffffffffffffffffffff1681526020018060200184600481111561142957fe5b60ff16815260200183151515158152602001828103825285818151815260200191508051906020019080838360005b83811015611473578082015181840152602081019050611458565b50505050905090810190601f1680156114a05780820380516001836020036101000a031916815260200191505b509550505050505060405180910390a150505050565b60003073ffffffffffffffffffffffffffffffffffffffff1631905090565b60008060008373ffffffffffffffffffffffffffffffffffffffff1673ffffffffffffffffffffffffffffffffffffffff168152602001908152602001600020549050919050565b61152561161b565b151561153057600080fd5b600073ffffffffffffffffffffffffffffffffffffffff16600360009054906101000a900473ffffffffffffffffffffffffffffffffffffffff1673ffffffffffffffffffffffffffffffffffffffff167f8be0079c531659141344cd1fd0a4f28419497f9722a3daafe3b4186f6b6457e060405160405180910390a36000600360006101000a81548173ffffffffffffffffffffffffffffffffffffffff021916908373ffffffffffffffffffffffffffffffffffffffff160217905550565b6000600360009054906101000a900473ffffffffffffffffffffffffffffffffffffffff16905090565b6000600360009054906101000a900473ffffffffffffffffffffffffffffffffffffffff1673ffffffffffffffffffffffffffffffffffffffff163373ffffffffffffffffffffffffffffffffffffffff1614905090565b60058054600181600116156101000203166002900480601f0160208091040260200160405190810160405280929190818152602001828054600181600116156101000203166002900480156117095780601f106116de57610100808354040283529160200191611709565b820191906000526020600020905b8154815290600101906020018083116116ec57829003601f168201915b505050505081565b60008073ffffffffffffffffffffffffffffffffffffffff168373ffffffffffffffffffffffffffffffffffffffff161415151561174e57600080fd5b6117dd82600160003373ffffffffffffffffffffffffffffffffffffffff1673ffffffffffffffffffffffffffffffffffffffff16815260200190815260200160002060008673ffffffffffffffffffffffffffffffffffffffff1673ffffffffffffffffffffffffffffffffffffffff16815260200190815260200160002054611a3190919063ffffffff16565b600160003373ffffffffffffffffffffffffffffffffffffffff1673ffffffffffffffffffffffffffffffffffffffff16815260200190815260200160002060008573ffffffffffffffffffffffffffffffffffffffff1673ffffffffffffffffffffffffffffffffffffffff168152602001908152602001600020819055508273ffffffffffffffffffffffffffffffffffffffff163373ffffffffffffffffffffffffffffffffffffffff167f8c5be1e5ebec7d5bd14f71427d1e84f3dd0314c0f7b2291e5b200ac8c7c3b925600160003373ffffffffffffffffffffffffffffffffffffffff1673ffffffffffffffffffffffffffffffffffffffff16815260200190815260200160002060008773ffffffffffffffffffffffffffffffffffffffff1673ffffffffffffffffffffffffffffffffffffffff168152602001908152602001600020546040518082815260200191505060405180910390a36001905092915050565b6000803411151561195857600080fd5b6008543402905061197161196a6115f1565b3383611a52565b50565b6000611981338484611a52565b6001905092915050565b6000600160008473ffffffffffffffffffffffffffffffffffffffff1673ffffffffffffffffffffffffffffffffffffffff16815260200190815260200160002060008373ffffffffffffffffffffffffffffffffffffffff1673ffffffffffffffffffffffffffffffffffffffff16815260200190815260200160002054905092915050565b611a1a61161b565b1515611a2557600080fd5b611a2e81611c8c565b50565b600080838311151515611a4357600080fd5b82840390508091505092915050565b6000808473ffffffffffffffffffffffffffffffffffffffff1673ffffffffffffffffffffffffffffffffffffffff168152602001908152602001600020548111151515611a9f57600080fd5b600073ffffffffffffffffffffffffffffffffffffffff168273ffffffffffffffffffffffffffffffffffffffff1614151515611adb57600080fd5b611b2c816000808673ffffffffffffffffffffffffffffffffffffffff1673ffffffffffffffffffffffffffffffffffffffff16815260200190815260200160002054611a3190919063ffffffff16565b6000808573ffffffffffffffffffffffffffffffffffffffff1673ffffffffffffffffffffffffffffffffffffffff16815260200190815260200160002081905550611bbf816000808573ffffffffffffffffffffffffffffffffffffffff1673ffffffffffffffffffffffffffffffffffffffff16815260200190815260200160002054611c6b90919063ffffffff16565b6000808473ffffffffffffffffffffffffffffffffffffffff1673ffffffffffffffffffffffffffffffffffffffff168152602001908152602001600020819055508173ffffffffffffffffffffffffffffffffffffffff168373ffffffffffffffffffffffffffffffffffffffff167fddf252ad1be2c89b69c2b068fc378daa952ba7f163c4a11628f55a4df523b3ef836040518082815260200191505060405180910390a3505050565b6000808284019050838110151515611c8257600080fd5b8091505092915050565b600073ffffffffffffffffffffffffffffffffffffffff168173ffffffffffffffffffffffffffffffffffffffff1614151515611cc857600080fd5b8073ffffffffffffffffffffffffffffffffffffffff16600360009054906101000a900473ffffffffffffffffffffffffffffffffffffffff1673ffffffffffffffffffffffffffffffffffffffff167f8be0079c531659141344cd1fd0a4f28419497f9722a3daafe3b4186f6b6457e060405160405180910390a380600360006101000a81548173ffffffffffffffffffffffffffffffffffffffff021916908373ffffffffffffffffffffffffffffffffffffffff16021790555050565b828054600181600116156101000203166002900490600052602060002090601f016020900481019282601f10611dc957805160ff1916838001178555611df7565b82800160010185558215611df7579182015b82811115611df6578251825591602001919060010190611ddb565b5b509050611e049190611e08565b5090565b611e2a91905b80821115611e26576000816000905550600101611e0e565b5090565b905600a165627a7a72305820195807a90fc9991ac0f6b3a06073e9943bafb1e8d001a61528e86f7f4a8ecaa10029",
  "source": "pragma solidity ^0.4.24;\n\nimport \"node_modules/openzeppelin-solidity/contracts/token/ERC20/ERC20.sol\";\nimport \"node_modules/openzeppelin-solidity/contracts/ownership/Ownable.sol\";\n\n/**\n * @title EduCoin ERC20 token\n *\n * @dev Implementation of the basic ERC20 token.\n * This is version 1 of the Educoin \n */\ncontract EduCoin is ERC20, Ownable {\n    string public name = \"EDUCOIN\";\n    string public symbol = \"EDU\";\n    uint8 public decimals = 18;\n    uint public INITIAL_SUPPLY = 50000000000000000000000000;\n    //address public owner; \n    uint public exchangeRate = 2;\n\n    //enumerated type to identify the type of school\n    enum SchoolType {College, Unversity, PrimarySchool, PreSchool, SecondarySchool}\n\n    //Structure to hold information about a school\n    struct School{\n       string schoolName; //\n       SchoolType schoolType; //specifies if investor is registered, inactive  \n       bool registered;\n    }\n    \n    mapping (address=>School) Schools; \n\n    //Events emitted when different milestones are executed\n    event NewSchoolAdded(address _schoolAddress, string _schoolName, SchoolType _type, bool _registered);\n    event SchoolRegistrationUpdated(address _schoolAdress, bool _registered);\n    event FeesPayed(address _from, address _school, uint _amount, string _reference);\n\n    /**\n   * @dev Throws if called by any school is not registered.\n   */\n    modifier onlyRegisteredSchool() {\n        require(msg.sender == owner());\n        _;\n    }\n\n    /**\n    * @dev EduCoin Constructor.\n    */\n    constructor() public {\n        _mint(msg.sender, INITIAL_SUPPLY);\n    }\n\n    /**\n    * @dev Get the amount of ether the contract has.\n    */\n    function getContractBalance() public view returns(uint) {\n        return address(this).balance;\n    }\n\n    /**\n    * @dev Allows administartor a Add a new school.\n    * @param _schoolAddress The address to of the school\n    * @param _schoolName The name of the school\n    * @param _type The type of the school\n    * @param _registered flag to activating or de-activating a school\n    */\n    function addSchool(address _schoolAddress, string _schoolName, SchoolType _type, bool _registered) public onlyOwner{\n        Schools[_schoolAddress] = School(\n            _schoolName,\n            _type,\n            _registered\n        );\n        /* Schools[_schoolAddress].schoolName = _schoolName; \n        Schools[_schoolAddress].registered = _registered; \n        Schools[_schoolAddress].schoolType = _type;  */\n        emit NewSchoolAdded(_schoolAddress, _schoolName, _type, _registered);\n    } \n\n    /**\n    * @dev Allows administrator to make a school active or not.\n    * @param _schoolAddress The address to of the school\n    * @param _registered flag to activating or de-activating a school\n    */\n    function registerSchool(address _schoolAddress, bool _registered) public onlyOwner {\n        Schools[_schoolAddress].registered = _registered;\n        emit SchoolRegistrationUpdated(_schoolAddress, _registered);\n    }\n\n    /**\n    * @dev Allows user to pay fees to a school.\n    * @param _schoolAdd The address to of the school\n    * @param _amount The amount the user paying\n    * @param _reference The reference required by the schools when paying fees\n    */\n    function payFees(address _schoolAdd, uint _amount, string _reference) public {\n        require(Schools[_schoolAdd].registered == true);\n        require(msg.sender != 0x0);\n        require(_schoolAdd != 0x0);\n        _transfer(msg.sender, _schoolAdd, _amount);\n        emit FeesPayed(msg.sender, _schoolAdd, _amount, _reference);\n    }\n\n    /**\n    * @dev Allows user to buy token using ether. The value is in wei and for testing a hardcorded\n    * exchange value is used.\n    * The user is then credited with the equivalent value of Tokens.\n    */\n    function buyToken() public payable {\n        require(msg.value > 0);\n        uint _tokens = msg.value * exchangeRate;\n        _transfer(owner(), msg.sender, _tokens);\n    }\n\n    /**\n    * @dev Allows user to get information about a school.\n    * @param _schoolAdd The address to of the school.\n    * @param _schoolName the return name os the school.\n    */\n    function getSchool(address _schoolAdd) public view returns(string _schoolName, bool _registered) {\n        School storage _school = Schools[_schoolAdd];\n        return (_school.schoolName, _school.registered);\n    }\n}",
  "sourcePath": "/Users/pbechani/Desktop/EduCoin/educoin/contracts/EduCoin.sol",
  "compiler": {
    "name": "solc",
    "version": "0.4.24+commit.e67f0147.Emscripten.clang"
  },
  "schemaVersion": "2.0.1",
  "updatedAt": "2018-12-08T21:08:18.420Z"
}